:0400000007EF00F016
:0A0008000182C3ED13F0F0EF13F0D6
:1008000000C27C480509024300020100C03209040D
:10081000000001020201000524001001042402026C
:1008200005240600010524010001070581030A00D3
:100830000209040100020A0000000705020240004C
:1008400000070582024000003403430044004300D7
:100850002000520053002D003200330032002000EF
:1008600045006D0075006C006100740069006F0048
:100870006E002000440065006D006F0034034D00E1
:100880006900630072006F00630068006900700017
:10089000200054006500630068006E006F006C006B
:1008A0006F0067007900200049006E0063002E0091
:1008B0001201000202000008D8040A00000101022F
:0708C000000104030904001C
:1008C80004013205D8A46BEF04F06DEF04F086EF55
:1008D80004F030511F0B0009D8A475EF04F077EF2E
:1008E80004F086EF04F0458E030E3119D8A47FEF8B
:1008F80004F081EF04F085EF04F0010E5A6E86EFE4
:1009080004F05A6A3251D8A48CEF04F08EEF04F048
:10091800E2EF05F030511F0B020AD8A496EF04F05D
:1009280098EF04F0E2EF05F034510F0B0009D8B44A
:10093800A0EF04F0A2EF04F0E2EF05F034510F0B42
:10094800186E030E1860ABEF04F0ADEF04F0E2EFA1
:1009580005F0200E5D18D8A4B4EF04F0B6EF04F04B
:10096800E2EF05F0458E34BFBCEF04F0BEEF04F0B3
:10097800D4EF04F034510F0B020DF3506A0FD96E07
:10098800DA6ADECF1DF0DDCF1EF034510F0B186E82
:100998001850780FD96EDA6ADF501C6EE8EF04F051
:1009A80034510F0B020DF3503D0FD96EDA6ADECFCA
:1009B8001DF0DDCF1EF034510F0B186E18507B0F51
:1009C800D96EDA6ADF501C6E1CB0EDEF04F0EFEF61
:1009D80004F0F7EF04F0FB0E1D141D6EFF0E1E143D
:1009E8001E6EFCEF04F0040E1D101D6E1E501E6ED0
:1009F80034BF01EF05F003EF05F010EF05F03451B7
:100A08000F0B020DF3506A0FD96EDA6A1DC0DEFFB4
:100A18001EC0DDFF1BEF05F034510F0B020DF35024
:100A28003D0FD96EDA6A1DC0DEFF1EC0DDFF030E62
:100A38003119D8A422EF05F024EF05F056EF05F0A0
:100A48001DC0D9FF1EC0DAFFDFAE2DEF05F02FEF76
:100A580005F048EF05F034BF34EF05F036EF05F048
:100A680040EF05F034510F0B186E1850780FD96EFF
:100A7800DA6ADF8248EF05F034510F0B186E185010
:100A88007B0FD96EDA6ADF821DC0D9FF1EC0DAFF7C
:100A9800000EDB841DC0D9FF1EC0DAFF000EDB8EFE
:100AA800E2EF05F0040E1D181D6E1E501E6E1DC0CF
:100AB800D9FF1EC0DAFFDFAE64EF05F066EF05F080
:100AC80080EF05F01DC0D9FF1EC0DAFF7F0EDF16CC
:100AD8001DC0D9FF1EC0DAFF000EDB8C116A050E9F
:100AE800106E1DC012F01EC013F0156A020E146EAF
:100AF8006FEC10F086EF05F01DC0D9FF1EC0DAFFBD
:100B0800000EDB8C040E1D181D6E1E501E6E1CB2CE
:100B180090EF05F092EF05F09DEF05F01DC0D9FFAD
:100B28001EC0DAFFDFAE9BEF05F09DEF05F0CBEFBF
:100B380005F0040134BFA3EF05F0A5EF05F0AFEF12
:100B480005F034510F0B186E1850780FD96EDA6A09
:100B5800DF92B7EF05F034510F0B186E18507B0F6A
:100B6800D96EDA6ADF921DC0D9FF1EC0DAFF3B0ECC
:100B7800DF16116A050E106E1DC012F01EC013F0AC
:100B8800156A020E146E6FEC10F0D1EF05F01DC05F
:100B9800D9FF1EC0DAFF3B0EDF16040134510F0BDC
:100BA800186E196A700E18241A6E0F0E19201B6E13
:100BB8001AC0D9FF1BC0DAFFFE0EDF1612005D0453
:100BC800D8A4E9EF05F0EBEF05F0F7EF05F06DBA03
:100BD800F0EF05F0F2EF05F0F7EF05F0686A6980CD
:100BE8006988020E5D6E68A4FCEF05F0FEEF05F063
:100BF80008EF06F069A403EF06F005EF06F008EF2A
:100C080006F0689434EC15F06DA20DEF06F00FEFC6
:100C180006F012EF06F0A19AE7EF06F068A017EFCA
:100C280006F019EF06F026EF06F069A01EEF06F0B1
:100C380020EF06F026EF06F05AEC0CF0A08A040E1E
:100C48005D6E689068A82BEF06F02DEF06F036EF82
:100C580006F069A832EF06F034EF06F036EF06F03A
:100C68009CEC15F068AC3BEF06F03DEF06F066EF44
:100C780006F069AC42EF06F044EF06F050EF06F0DC
:100C8800116A730E106E000E126E000E136E156A46
:100C9800010E146E6FEC10F0689C6CEC15F0565059
:100CA800D8B459EF06F05BEF06F05CEF06F0560695
:100CB8005650D8A462EF06F064EF06F066EF06F02F
:100CC800CEEC0EF068AA6BEF06F06DEF06F076EF4B
:100CD80006F069AA72EF06F074EF06F076EF06F0F8
:100CE80065EC13F068A27BEF06F07DEF06F091EF5C
:100CF80006F069A282EF06F084EF06F091EF06F0A5
:100D08007F0E116E1068000E126E000E136E156ABB
:100D1800010E146E6FEC10F06A6A040E5D6097EFB6
:100D280006F099EF06F09CEF06F0A19AE7EF06F0BF
:100D380069A6A1EF06F0A3EF06F0E6EF06F0216A38
:100D480068A6A9EF06F0ABEF06F0E6EF06F06CCF69
:100D58005EF05E30E832E8320F0B586E68965EB48B
:100D6800B8EF06F0BAEF06F0C1EF06F05850780F6A
:100D7800D96EDA6ADF70C6EF06F058507B0FD96E6D
:100D8800DA6ADF705850D8A4CCEF06F0CEEF06F040
:100D9800D2EF06F014EC10F0DDEF06F0116A720ED7
:100DA800106E5E0E126E136A156A000E146E6FECEA
:100DB80010F0212A030E2164E4EF06F0E6EF06F0B6
:100DC800A4EF06F0A19A1200A09A00017E517F11AB
:100DD800D8B4F1EF06F0F3EF06F001EF07F07EC0AC
:100DE800D9FF7FC0DAFFDFAEFCEF06F0FEEF06F0BA
:100DF80001EF07F0A08AB2EF07F0030E5118D8A44C
:100E080008EF07F00AEF07F00BEF07F0516A5150AF
:100E1800D8A411EF07F013EF07F016EF07F0A08A38
:100E2800B2EF07F0020E5118D8A41DEF07F01FEF1C
:100E380007F032EF07F0010E2C6E000E2D6E000E3B
:100E48002E6E000E2F6E020E23EC0AF02CC07EF0E0
:100E58002DC07FF0030E516EB1EF07F05104D8A4F6
:100E680038EF07F03AEF07F0B1EF07F0400E5064A3
:100E780040EF07F042EF07F046EF07F0400E356EFF
:100E880048EF07F050C035F03550505C506E000EFA
:100E9800806F050E816F35C034F08851D8A457EFA4
:100EA80007F059EF07F083EF07F06AEF07F082C009
:100EB800D9FF83C0DAFF80C0E1FF81C0E2FFDFCF46
:100EC800E7FF804B812B824B832B34063450D8A408
:100ED80070EF07F072EF07F05BEF07F08BEF07F0AA
:100EE80082C0D9FF83C0DAFF80C0E1FF81C0E2FF82
:100EF800DFCFE7FF804B812B824B832B34063450A6
:100F0800D8A489EF07F08BEF07F074EF07F0505083
:100F1800D8A491EF07F093EF07F0A2EF07F0400E87
:100F28003518D8A49AEF07F09CEF07F0A0EF07F068
:100F3800020E516EA2EF07F0030E516E010E2C6ED9
:100F4800000E2D6E050E2E6E35C02FF0020E23EC0E
:100F58000AF02CC07EF02DC07FF0A08A1200800E0F
:100F680004013019D8A4BBEF07F0BDEF07F052EF2A
:100F780008F0C00E456E43EF08F0B00E436E4350C4
:100F8800D8A4080E446E476A120E466E52EF08F057
:100F98003251D8A4D2EF07F0D4EF07F010EF08F0E1
:100FA8003251040F026E02C0F6FF080EF76E0900F8
:100FB800F5CF43F0080E446E020E4324026E000E75
:100FC8004420036E02C0F6FF03C0F7FFF86A070E5D
:100FD800F76403D00800F55005D0F6CFE1FFF7CF4E
:100FE800E2FFE750466E030E4324026E000E4420D3
:100FF800036E02C0F6FF03C0F7FFF86A070EF76436
:1010080003D00800F55005D0F6CFE1FFF7CFE2FF97
:10101800E750476E52EF08F0456A52EF08F0030EAA
:10102800326119EF08F01BEF08F03DEF08F032517C
:10103800010F026E02C0F6FF080EF76E0900F5CF29
:1010480043F0080E446E43C0F6FF44C0F7FFF86A49
:10105800070EF76403D00800F55005D0F6CFE1FF7E
:10106800F7CFE2FFE750026E0250466E476A52EF32
:1010780008F0456A52EF08F0456A52EF08F033511C
:10108800010AD8B4C1EF07F0030AD8B4CCEF07F0CF
:10109800010AD8B413EF08F040EF08F0120020EE70
:1010A80001F04E50D9264F50DA22DF50036E03501C
:1010B800395C000E3A58D8B064EF08F066EF08F0D3
:1010C80068EF08F039C003F00350395E000E3A5A51
:1010D800026A7CEF08F0380E0224D96EDA6A040E30
:1010E800DA223650E16EE26ADFCFE7FF362A022ABB
:1010F8000350025CD8A083EF08F085EF08F06FEF8B
:1011080008F039503A10D8B48CEF08F08EEF08F098
:10111800C7EF08F020EE01F04C50D9264D50DA22E6
:10112800080EDF6E20EE02F04C50D9264D50DA2220
:10113800380EDE6E040EDD6E4EC0D9FF4FC0DAFFEA
:10114800DFBCA9EF08F0ABEF08F0B9EF08F04CC02E
:10115800D9FF4DC0DAFF480EDF6E4CC0D9FF4DC035
:10116800DAFF000EDB8EF0EF08F04CC0D9FF4DC05F
:10117800DAFF080EDF6E4CC0D9FF4DC0DAFF000E53
:10118800DB8EF0EF08F020EE01F04C50D9264D50E0
:10119800DA22080EDF6E20EE02F04C50D9264D50B0
:1011A800DA22300EDE6E040EDD6E4CC0D9FF4DC063
:1011B800DAFF040EDF6E4CC0D9FF4DC0DAFF000E17
:1011C800DB8E389E5550D8A4ECEF08F0EEEF08F00F
:1011D800F0EF08F0CEEC0EF012006D9845BEF7EF78
:1011E80008F0F9EF08F03DEF09F038AEFEEF08F02F
:1011F80000EF09F011EF09F0020E5B6E00018A5151
:10120800D8A409EF09F00BEF09F00DEF09F01DEC78
:1012180011F0536A546A8CEF09F020EE01F04C503B
:10122800D9264D50DA22080EDF6E20EE02F04C501F
:10123800D9264D50DA22300EDE6E040EDD6E4CC01B
:10124800D9FF4DC0DAFF0C0EDF6E4CC0D9FF4DC080
:10125800DAFF000EDB8E3DC0D9FF3EC0DAFF040E78
:10126800DF6E3DC0D9FF3EC0DAFF000EDB8E8CEF8B
:1012780009F0040130AF43EF09F045EF09F060EFE2
:1012880009F0010E5B6E00018B51D8A44EEF09F0F6
:1012980050EF09F052EF09F01DEC11F0536A546A4F
:1012A8005550D8A45AEF09F05CEF09F08CEF09F01B
:1012B800CEEC0EF08CEF09F0020E5B6E20EE01F022
:1012C8004C50D9264D50DA22080EDF6E20EE02F07F
:1012D8004C50D9264D50DA22300EDE6E040EDD6EEB
:1012E8004CC0D9FF4DC0DAFF040EDF6E4CC0D9FFE9
:1012F8004DC0DAFF000EDB8E536A546A5550D8A4ED
:1013080088EF09F08AEF09F08CEF09F05CEF09F03B
:101318001200200E5D6093EF09F095EF09F097EF4A
:1013280009F022EF0AF06DA29CEF09F09EEF09F098
:10133800A0EF09F022EF0AF0010E3AEC12F0E806ED
:10134800D8A4A9EF09F0ABEF09F0C5EF09F0000147
:101358008651D8A4B2EF09F0B4EF09F0C7EF09F04D
:101368005150D8A4BAEF09F0BCEF09F0C7EF09F063
:10137800DD0E2C6EA1EC12F0010E0001866FC7EF96
:1013880009F00001866B5150D8A4CDEF09F0CFEFDA
:1013980009F020EF0AF08C0E346E400E356EC7EC63
:1013A80010F00001F36FF46B07EF0AF0F4518C0FA3
:1013B800D96EDA6A000EF425E16EE26A010EE222C5
:1013C800DFCFE7FF06EF0AF0000EF425D96EDA6AE0
:1013D800010EDA22F4518C0FE16EE26AE750020F37
:1013E800DF6E06EF0AF0F4518C0FD96EDA6ADF501F
:1013F8000A0AD8B4DAEF09F0070AD8B4DAEF09F024
:10140800E8EF09F0F42BF351F45DD8A00EEF0AF0E1
:1014180010EF0AF0F7EF09F0F351D8B416EF0AF01D
:1014280018EF0AF020EF0AF0000E2C6E010E2D6E58
:10143800F3C02EF086EC15F0E8EC06F0120000017F
:10144800EF6F2C50D8B42BEF0AF02DEF0AF03AEFDB
:101458000AF00001EF51020DF3503D0FD96EDA6A20
:10146800DECFF0F0DDCFF1F045EF0AF00001EF51EB
:10147800020DF3506A0FD96EDA6ADECFF0F0DDCFD5
:10148800F1F0F051F111D8A44CEF0AF04EEF0AF048
:1014980054EF0AF0000E2C6E000E2D6EB8EF0AF015
:1014A80020EE02F0F051D926F151DA222DC0DEFFEC
:1014B8002EC0DDFF20EE01F0F051D926F151DA22DD
:1014C8002FC0DFFFF0C0D9FFF1C0DAFF400EDF16F2
:1014D800F0C0D9FFF1C0DAFF000EDB86F0C0D9FFFB
:1014E800F1C0DAFF000EDB8E2C50D8B47EEF0AF084
:1014F80080EF0AF09BEF0AF0EF51020DF3503D0F19
:10150800D96EDA6ADECF30F0DDCF31F0040E301854
:10151800326E3150336EEF51020DF3503D0FD96EDC
:10152800DA6A32C0DEFF33C0DDFFB4EF0AF0EF51F4
:10153800020DF3506A0FD96EDA6ADECF30F0DDCFD4
:1015480031F0040E3018326E3150336EEF51020D07
:10155800F3506A0FD96EDA6A32C0DEFF33C0DDFF9E
:10156800F0C02CF0F1C02DF012000A6E0250D8B471
:10157800C0EF0AF0C2EF0AF0CEEF0AF00A50020DEF
:10158800F3503D0FD96EDA6ADECF0BF0DDCF0CF0E9
:10159800D8EF0AF00A50020DF3506A0FD96EDA6AD2
:1015A800DECF0BF0DDCF0CF00B500C10D8A4DFEF22
:1015B8000AF0E1EF0AF0E7EF0AF0000E026E000E03
:1015C800036E4BEF0BF020EE02F00B50D9260C50B7
:1015D800DA2203C0DEFF04C0DDFF20EE01F00B506D
:1015E800D9260C50DA2205C0DFFF0BC0D9FF0CC08A
:1015F800DAFF400EDF160BC0D9FF0CC0DAFF000E71
:10160800DB860BC0D9FF0CC0DAFF000EDB8E025060
:10161800D8B411EF0BF013EF0BF02EEF0BF00A50CC
:10162800020DF3503D0FD96EDA6ADECF06F0DDCF3A
:1016380007F0040E0618086E0750096E0A50020DCE
:10164800F3503D0FD96EDA6A08C0DEFF09C0DDFF2E
:1016580047EF0BF00A50020DF3506A0FD96EDA6AA1
:10166800DECF06F0DDCF07F0040E0618086E07502F
:10167800096E0A50020DF3506A0FD96EDA6A08C073
:10168800DEFF09C0DDFF0BC002F00CC003F0120042
:10169800080E026E475007E1080E465CD8B057EFB7
:1016A8000BF059EF0BF071EF0BF046C002F05C50F5
:1016B800D8A461EF0BF063EF0BF067EF0BF0010EAE
:1016C8005C6E71EF0BF05C04D8A46DEF0BF06FEF5C
:1016D8000BF071EF0BF0020E5C6E0250465E000ECE
:1016E800475A20EE01F03D50D9263E50DA2202C07A
:1016F800DFFF380E0001846F040E856F45B087EF59
:101708000BF089EF0BF0CBEF0BF0A6EF0BF043C01B
:10171800F6FF44C0F7FFF86A84C0D9FF85C0DAFF36
:10172800070EF76403D00800F55005D0F6CFE1FFA7
:10173800F7CFE2FFE750DF6E434A442A0001844BAB
:10174800852B02060250D8A4ACEF0BF0AEEF0BF0DD
:101758008BEF0BF0D3EF0BF043C0F6FF44C0F7FF5D
:10176800F86A84C0D9FF85C0DAFF070EF76403D092
:101778000800F55005D0F6CFE1FFF7CFE2FFE750BC
:10178800DF6E434A442A0001844B852B020602502F
:10179800D8A4D1EF0BF0D3EF0BF0B0EF0BF01200A1
:1017A800A09A6A6A686A706A710E2C6E0F0E2D6EA6
:1017B8002F6A000E2E6E316A020E306E18EC15F08C
:1017C800160E6F6E9F0E6B6E7B0E696E346A345008
:1017D800040D000EF324D96E040EF420DA6EDE6ACE
:1017E800DE6ADE6ADD6A342A0B0E3464FEEF0BF023
:1017F80000EF0CF0EBEF0BF06D8C6E6A6D986D9C42
:101808006896456A386A3A6A000E396E68B60FEF0C
:101818000CF011EF0CF004EF0CF0010E546E010EF9
:10182800536E00018B6B8A6B596A346A3450020D0F
:10183800F3503D0FD96EDA6ADE6ADD6A3450020D64
:10184800F3506A0FD96EDA6ADE6ADD6A34507B0FAC
:10185800D96EDA6ADF6A3450780FD96EDA6ADF6ACD
:10186800342A020E34643BEF0CF03DEF0CF01AEF13
:101878000CF0080E3D6E040E3E6E160E706E040ED1
:101888000401036F300E026F080E016F040E006F23
:10189800008F5F6A000E0001746F000E756F000EF6
:1018A800766F000E776F896B5D6A1200A09A6A6A7C
:1018B800686A706A710E026E0F0E036E056A000E7A
:1018C800046E076A020E066E50EC15F0160E6F6E67
:1018D8009F0E6B6E7B0E696E0A6A0A50040D000E2D
:1018E800F324D96E040EF420DA6EDE6ADE6ADE6A4C
:1018F800DD6A0A2A0B0E0A6484EF0CF086EF0CF0FE
:1019080071EF0CF06D8C6E6A6D986D9C6896456AE7
:10191800386A3A6A000E396E68B695EF0CF097EFA0
:101928000CF08AEF0CF0010E546E010E536E00019C
:101938008B6B8A6B596A0A6A0A50020DF3503D0F85
:10194800D96EDA6ADE6ADD6A0A50020DF3506A0F50
:10195800D96EDA6ADE6ADD6A0A507B0FD96EDA6AF6
:10196800DF6A0A50780FD96EDA6ADF6A0A2A020E2D
:101978000A64C1EF0CF0C3EF0CF0A0EF0CF0080EF6
:101988003D6E040E3E6E160E706E040E0401036F5B
:10199800300E026F080E016F040E006F008F5F6A31
:1019A800000E0001746F000E756F000E766F000E4A
:1019B800776F896B5D6A12003DC0D9FF3EC0DAFFC0
:1019C800000EDFBC010E036E040E3D183D6E3E5046
:1019D8003E6E080E5D18D8A4F4EF0CF0F6EF0CF08C
:1019E80008EF0DF0040132517F0B6E6E6E50D8B4C3
:1019F80000EF0DF002EF0DF006EF0DF0100E5D6E2A
:101A080008EF0DF0040E5D6E5B04D8A40EEF0DF028
:101A180010EF0DF057EF0DF020EE02F03D50D926F3
:101A28003E50DA22380EDE6E040EDD6E4CEC0BF002
:101A3800020E5C18D8A423EF0DF025EF0DF033EF5C
:101A48000DF03DC0D9FF3EC0DAFF040EDF6E3DC089
:101A5800D9FF3EC0DAFF000EDB8E60EF0DF00350B9
:101A6800D8A439EF0DF03BEF0DF049EF0DF03DC074
:101A7800D9FF3EC0DAFF480EDF6E3DC0D9FF3EC039
:101A8800DAFF000EDB8E60EF0DF03DC0D9FF3EC0DF
:101A9800DAFF080EDF6E3DC0D9FF3EC0DAFF000E48
:101AA800DB8E60EF0DF038AE5CEF0DF05EEF0DF001
:101AB8005FEF0DF0389E5B6A120004013039E8329E
:101AC800030B0009D8B46BEF0DF06DEF0DF0B0EF1C
:101AD8000DF0DFEF0DF0458E080E5D6EDFEF0DF0B7
:101AE800B3EC07F0DFEF0DF0B2EC0FF0DFEF0DF025
:101AF8005F0E436E446A4580010E466E458EDFEFE9
:101B08000DF0E0EC0DF0DFEF0DF064EC04F0DFEF2A
:101B18000DF03451DB0F1F6E1FC043F0446A45803F
:101B2800010E466E458EDFEF0DF0458E3451DB0F0A
:101B3800D96EDA6A32C4DFFFDFEF0DF0116A020EE8
:101B4800106E000E126E000E136E156A000E146EE3
:101B58006FEC10F0DFEF0DF03151000AD8B485EFCB
:101B68000DF0010AD8B489EF0DF0020AD8B489EF54
:101B78000DF0060AD8B46FEF0DF0030AD8B474EF6D
:101B88000DF0010AD8B4A2EF0DF00F0AD8B47CEF1B
:101B98000DF0010AD8B478EF0DF0030AD8B48DEF30
:101BA8000DF0010AD8B499EF0DF0070AD8B4DFEFA9
:101BB8000DF0DFEF0DF012000401386B396B38EFD0
:101BC8000EF0458E5A04D8A4ECEF0DF0EEEF0DF0B0
:101BD80048EF0EF0388348EF0EF0458E48EF0EF0D0
:101BE800458E34510F0B0009D8B4FDEF0DF0FFEF0F
:101BF8000DF048EF0EF034BF04EF0EF006EF0EF0D4
:101C080013EF0EF034510F0B020DF3506A0FD96E1B
:101C1800DA6ADECF02F0DDCF03F01EEF0EF03451AA
:101C28000F0B020DF3503D0FD96EDA6ADECF02F0CA
:101C3800DDCF03F002C0D9FF03C0DAFFDFAE27EF24
:101C48000EF029EF0EF048EF0EF002C0D9FF03C0E6
:101C5800DAFFDFA432EF0EF034EF0EF048EF0EF0AB
:101C6800010E386F48EF0EF030511F0B000AD8B440
:101C7800E5EF0DF0010AD8B4F1EF0DF0030AD8B47E
:101C8800F4EF0DF048EF0EF045AE4DEF0EF04FEFCC
:101C98000EF056EF0EF0380E436E040E446E45807B
:101CA800020E466E12006DA25CEF0EF05EEF0EF0B3
:101CB800BAEF0EF0040E34EC13F0CDEF0EF048043A
:101CC8004910D8A46AEF0EF06CEF0EF071EF0EF029
:101CD800040E03EC13F0CBEF0EF04B0E481849102E
:101CE800D8A479EF0EF07BEF0EF080EF0EF0040E23
:101CF80034EC13F0CBEF0EF0495009E1970E485C35
:101D0800D8A089EF0EF08BEF0EF0CBEF0EF0496AFA
:101D1800000E486ECBEF0EF048044910D8A497EF98
:101D28000EF099EF0EF09EEF0EF0040E03EC13F098
:101D3800CBEF0EF0320E48184910D8A4A6EF0EF0DB
:101D4800A8EF0EF0ADEF0EF0040E34EC13F0CBEF6D
:101D58000EF0B70E485C030E4958D8A0B6EF0EF047
:101D6800B8EF0EF0CBEF0EF08BEF0EF05D50056E76
:101D7800066A0650000AD8B4C4EF0EF090EF0EF0D1
:101D88000550200AD8B463EF0EF090EF0EF0484AE1
:101D9800492A12005450D8A4D4EF0EF0D6EF0EF012
:101DA80041EF0FF0010E546E5350D8A4DEEF0EF041
:101DB800E0EF0EF041EF0FF0010E536E020E5B18CC
:101DC800D8A4E9EF0EF0EBEF0EF000EF0FF020EEE5
:101DD80001F03D50D9263E50DA22DF6A3DC0D9FFD6
:101DE8003EC0DAFF480EDF6E3DC0D9FF3EC0DAFFC5
:101DF800000EDB8E41EF0FF05B04D8A406EF0FF066
:101E080008EF0FF041EF0FF0576A20EE01F04E5047
:101E1800D9264F50DA22080EDF6E20EE02F04E501F
:101E2800D9264F50DA22300EDE6E040EDD6E4EC01B
:101E3800D9FF4FC0DAFF040EDF6E4EC0D9FF4FC086
:101E4800DAFF000EDB8E010E576E20EE01F04C50CB
:101E5800D9264D50DA22080EDF6E20EE02F04C50E3
:101E6800D9264D50DA22300EDE6E040EDD6E4CC0DF
:101E7800D9FF4DC0DAFF800EDF6E12000401305129
:101E88001F0BE806D8B44BEF0FF04DEF0FF04FEFF4
:101E98000FF0B1EF0FF03039E832030BE806D8B491
:101EA80058EF0FF05AEF0FF05CEF0FF0B1EF0FF0B3
:101EB8003451D8B462EF0FF064EF0FF09AEF0FF0DF
:101EC8003405D8B46AEF0FF06CEF0FF09AEF0FF00B
:101ED800B1EF0FF0CC0E436E446A476A080E466EA7
:101EE8004580458EB1EF0FF0CC0E436E446A458EA7
:101EF800B1EF0FF036C439F037C43AF0D40E366E6D
:101F0800000E3B6E000E3C6E388EB1EF0FF0D40E13
:101F1800436E446A476A070E466EC10E456EB1EFBE
:101F28000FF032C487F0458EB1EF0FF03151000A3F
:101F3800D8B46EEF0FF0010AD8B478EF0FF0210A89
:101F4800D8B47EEF0FF0010AD8B48BEF0FF0030A74
:101F5800D8B495EF0FF0B1EF0FF01200458E710E67
:101F6800026E0F0E036E056A000E046E076A020EFB
:101F7800066E50EC15F0000E026E040E036E056A34
:101F8800000E046E076A300E066E50EC15F06D8C6C
:101F9800186A18507B0FD96EDA6ADF6A1850780F02
:101FA800D96EDA6ADF6A182A020E1864DEEF0FF0BB
:101FB800E0EF0FF0CDEF0FF0DB0E026E036A056A5B
:101FC800000E046E076A020E066E50EC15F06D9C4A
:101FD800080E3D6E040E3E6E000E4E6E040E4F6EE1
:101FE8004EC04CF04FC04DF032C45FF05F50D8A4E3
:101FF80000EF10F002EF10F006EF10F0100E5D6E1B
:1020080013EF10F0116A010E106E5F0E126E136A54
:10201800156A010E146E6FEC10F0200E5D6E120042
:102028002D0E566E5EC020F0FD0E2016D8A41FEFB0
:1020380010F021EF10F062EF10F05EC020F0D890A1
:1020480020323F0E20162050040D000EF3244E6E51
:10205800040EF4204F6E4EC04CF04FC04DF0040EED
:102068004C184C6E4D504D6E4EC0D9FF4FC0DAFF24
:10207800DF30E8320F0B0D0AD8A445EF10F047EF18
:1020880010F05EEF10F0300E026E040E036E20EEBC
:1020980002F04E50D9264F50DA22DECF04F0DDCFC1
:1020A80005F0076A080E066E19EC14F0C6EC11F07C
:1020B8006EEF10F002EC12F06EEF10F05E50FD0BB8
:1020C800040AD8A46AEF10F06CEF10F06EEF10F06D
:1020D800E0EC0CF012008DEF10F057EC0EF0C6EFAC
:1020E80010F057EC0EF0010E8CEC14F0C6EF10F067
:1020F80057EC0EF0020E8CEC14F0C6EF10F095ECD5
:1021080013F0B0EC15F0C6EF10F042EC0FF0C6EF8C
:1021180010F010C016F011C017F01750000AD8B40C
:102128009CEF10F07F0AD8B4BFEF10F0C6EF10F0A4
:102138001650010AD8B483EF10F0030AD8B4C6EFDA
:1021480010F0010AD8B489EF10F0060AD8B4C6EF27
:1021580010F0770AD8B4C6EF10F0010AD8B471EFBE
:1021680010F0070AD8B47CEF10F0010AD8B475EF64
:1021780010F0C6EF10F01650FF0AD8B4C6EF10F0F2
:10218800C6EF10F01200526A4A504B10D8B4CFEF85
:1021980010F0D1EF10F0DCEF10F04AC0D9FF4BC0BF
:1021A800DAFFDFBEDAEF10F0DCEF10F01BEF11F012
:1021B80020EE01F04A50D9264B50DA223550DE5C29
:1021C800D8B0E9EF10F0EBEF10F0F3EF10F020EEDD
:1021D80001F04A50D9264B50DA22DF50356E526A48
:1021E80003EF11F0400E5224D96EDA6A050EDA2296
:1021F80034505224E16EE26ADFCFE7FF522A3550AD
:10220800525CD8A00AEF11F00CEF11F0F6EF10F0C5
:10221800000E2C6E400E2D6E050E2E6E400E2F6E8B
:10222800020E23EC0AF02CC04AF02DC04BF052509D
:10223800120000018B6B8A6B020E5B18D8A427EF83
:1022480011F029EF11F049EF11F020EE01F04C5098
:10225800D9264D50DA22080EDF6E20EE02F04C50DF
:10226800D9264D50DA22380EDE6E040EDD6E4CC0D3
:10227800D9FF4DC0DAFF480EDF6E4CC0D9FF4DC004
:10228800DAFF000EDB8E71EF11F046500401365D67
:1022980047503759D8B053EF11F055EF11F059EFB7
:1022A80011F036C446F037C447F04CEC0BF020EE82
:1022B80002F03D50D9263E50DA22380EDE6E040E6A
:1022C800DD6E3DC0D9FF3EC0DAFF480EDF6E3DC06F
:1022D800D9FF3EC0DAFF000EDB8E1200096E000E39
:1022E8000A6E040E0B6E0250036E046AD890033611
:1022F80004360950056E066AD89005360636D89019
:102308000536063603500524076E04500620086E6D
:10231800D89007360836D8900736083607500A2668
:1023280008500B220AC0D9FF0BC0DAFFDF9E02500B
:10233800D8A4A1EF11F0A3EF11F0AFEF11F00950FD
:10234800020DF3506A0FD96EDA6A0AC0DEFF0BC0BD
:10235800DDFFB9EF11F00950020DF3503D0FD96EB2
:10236800DA6A0AC0DEFF0BC0DDFF0AC0D9FF0BC066
:10237800DAFFDF9C20EE04F00A50D9260B50DA224F
:10238800DF8C12005C6A556A00018B6B8A6B576A96
:102398005B6A3DC0D9FF3EC0DAFF7F0EDF16040E30
:1023A8003D183D6E3E503E6E3DC0D9FF3EC0DAFF3F
:1023B8007F0EDF16040E3D183D6E3E503E6E4CC03B
:1023C800D9FF4DC0DAFF7F0EDF16456A476A000E57
:1023D800466E386A3A6A000E396E61EC0DF0116A81
:1023E800030E106E000E126E000E136E156A000EAC
:1023F800146E6FEC10F0F1EC08F01200020E5B188E
:10240800D8A409EF12F00BEF12F00FEF12F053EC13
:1024180008F039EF12F05B6A5750D8A416EF12F0A3
:1024280018EF12F038EF12F020EE01F04C50D926D8
:102438004D50DA22080EDF6E20EE02F04C50D926FD
:102448004D50DA22300EDE6E040EDD6E4CC0D9FF20
:102458004DC0DAFF0C0EDF6E4CC0D9FF4DC0DAFF5D
:10246800000EDB8E39EF12F0576A12002E6E56EF0F
:1024780012F081A842EF12F045EF12F0010E46EF7C
:1024880012F0000E6FEF12F081AA4DEF12F050EF2C
:1024980012F0010E51EF12F0000E6FEF12F0000E65
:1024A8006FEF12F02E502C6E2D6A2D50000AD8B402
:1024B80060EF12F053EF12F02C50000AD8B453EF2B
:1024C80012F0010AD8B43DEF12F0030AD8B448EF6D
:1024D80012F053EF12F012002E6E7FEF12F095906B
:1024E800A0EF12F09592A0EF12F09594A0EF12F0E1
:1024F8009596A0EF12F02E502C6E2D6A2D50000AE2
:10250800D8B489EF12F0A0EF12F02C50000AD8B41A
:10251800A0EF12F0010AD8B473EF12F0030AD8B48E
:1025280076EF12F0010AD8B479EF12F0070AD8B49E
:102538007CEF12F0A0EF12F01200A09A5150D8B41C
:10254800A8EF12F0AAEF12F0ADEF12F0A08AD1EFC7
:1025580012F02E6A2CC02DF02E2A2E28D8A4B7EF00
:1025680012F0B9EF12F0BBEF12F0C7EF12F02D2AFC
:102578002D04D96EDA6ADF50D8A4C5EF12F0C7EF80
:1025880012F0B0EF12F02CC082F00001836B2EC065
:1025980050F0886B010E516EA08A1200046EE1EFB4
:1025A80012F0959002EF13F0959202EF13F09594C4
:1025B80002EF13F0959602EF13F00450026E036ACF
:1025C8000350000AD8B4EBEF12F002EF13F00250F8
:1025D800000AD8B402EF13F0010AD8B4D5EF12F00C
:1025E800030AD8B4D8EF12F0010AD8B4DBEF12F01E
:1025F800070AD8B4DEEF12F002EF13F01200046EEF
:1026080012EF13F08C8033EF13F08C8233EF13F05A
:102618008C8433EF13F08C8633EF13F00450026E82
:10262800036A0350000AD8B41CEF13F033EF13F019
:102638000250000AD8B433EF13F0010AD8B406EFF9
:1026480013F0030AD8B409EF13F0010AD8B40CEF59
:1026580013F0070AD8B40FEF13F033EF13F012009A
:10266800046E43EF13F08C9064EF13F08C9264EFD8
:1026780013F08C9464EF13F08C9664EF13F004500D
:10268800026E036A0350000AD8B44DEF13F064EFEA
:1026980013F00250000AD8B464EF13F0010AD8B45A
:1026A80037EF13F0030AD8B43AEF13F0010AD8B49D
:1026B8003DEF13F0070AD8B440EF13F064EF13F0BE
:1026C800120070A06AEF13F06CEF13F093EF13F0A1
:1026D8004EC0D9FF4FC0DAFF800EDE18D8A477EFBE
:1026E80013F079EF13F092EF13F03DC0D9FF3EC01D
:1026F800DAFF840EDE18D8A484EF13F086EF13F007
:1027080092EF13F04EC0D9FF4FC0DAFF0C0EDF6E08
:102718004EC0D9FF4FC0DAFF000EDB8E7090689A6A
:102728001200000E0001D46F4B0ED56F000ED66F4D
:10273800000ED76FD86BD96B080EDA6F526A1A0E73
:102748000C6E010E41EC14F01E0E0C6E020E41ECE4
:1027580014F0000E026E400E036E050E046E400E5D
:10276800056E020EB9EC0AF002C04AF003C04BF045
:10277800000E00017E6F000E7F6F516A1200060086
:10278800E1CF22F0E2CF23F0D9CF24F0DACF25F041
:10279800F3CF26F0F4CF27F0F6CF28F0F7CF29F0C3
:1027A800F8CF2AF0F5CF2BF0E3EC05F02BC0F5FFBE
:1027B8002AC0F8FF29C0F7FF28C0F6FF27C0F4FF9A
:1027C80026C0F3FF25C0DAFF24C0D9FF23C0E2FFEB
:1027D80022C0E1FF01921100980EF66E2B0EF76EE3
:1027E800000EF86E00EEDDF010EE12F00900F5CFE5
:1027F800EEFFE550E150FAE101EE00F0400EEE6A1E
:10280800E806FDE100EE60F07D0EEE6AE806FDE107
:1028180000EE36F02A0EEE6AE806FDE1019001921C
:10282800000EF86E0001BFEF15F004C00AF005C0F5
:102838000BF002C008F003C009F033EF14F00AC02F
:10284800D9FF0BC0DAFFDF500C6E0A4A0B2A08C00A
:10285800D9FF09C0DAFF0CC0DFFF084A092A0606BB
:10286800D8A00706062806E10728D8A43EEF14F0EA
:1028780040EF14F023EF14F012000F6E0CA447EF92
:1028880014F049EF14F04EEF14F0000E026E0F50E2
:1028980072EC11F00CA253EF14F055EF14F05AEF4C
:1028A80014F0010E026E0F5072EC11F0700E0F242E
:1028B8000D6E0E6A0F0E0E220DC0D9FF0EC0DAFF84
:1028C8000CC0DFFF1200316E72EF14F0040E70ECD2
:1028D80012F0010EB1EC14F08BEF14F031502F6EA2
:1028E800306A3050000AD8B47CEF14F08BEF14F043
:1028F8002F50000AD8B46AEF14F0010AD8B48BEF4D
:1029080014F0030AD8B48BEF14F08BEF14F0120014
:10291800076E97EF14F0040ED2EC12F0010ED4EC0F
:1029280014F0B0EF14F00750056E066A0650000A5E
:10293800D8B4A1EF14F0B0EF14F00550000AD8B4E1
:102948008FEF14F0010AD8B4B0EF14F0030AD8B42A
:10295800B0EF14F0B0EF14F012002E6EBAEF14F0CE
:102968009388D3EF14F0938AD3EF14F02E502C6E83
:102978002D6A2D50000AD8B4C4EF14F0D3EF14F028
:102988002C50000AD8B4D3EF14F0010AD8B4B4EF2D
:1029980014F0030AD8B4B7EF14F0D3EF14F0120010
:1029A800046EDDEF14F09388F6EF14F0938AF6EFD7
:1029B80014F00450026E036A0350000AD8B4E7EF1B
:1029C80014F0F6EF14F00250000AD8B4F6EF14F041
:1029D800010AD8B4D7EF14F0030AD8B4DAEF14F028
:1029E800F6EF14F012005D50D8A4FDEF14F0FFEFDD
:1029F80014F017EF15F06D6A696A160E6F6E9F0E68
:102A08006B6E7B0E696ED08EA28AA08AF28E0EEF54
:102A180015F06D866DA613EF15F015EF15F00DEF97
:102A280015F0010E5D6E12002CC032F02DC033F08F
:102A380026EF15F032C0D9FF33C0DAFF2EC0DFFF12
:102A4800324A332A3006D8A03106302806E1312828
:102A5800D8A431EF15F033EF15F01EEF15F0120082
:102A6800596A116A740E106E000E126E000E136E03
:102A7800156A000E146E6FEC10F06D92699446EFB3
:102A880015F0689468B44BEF15F04DEF15F045EF6D
:102A980015F00001896B120002C008F003C009F0AC
:102AA8005EEF15F008C0D9FF09C0DAFF04C0DFFFE8
:102AB800084A092A0606D8A00706062806E10728B4
:102AC800D8A469EF15F06BEF15F056EF15F012006A
:102AD800010E00017427000E7523762377235950C1
:102AE800D8A479EF15F07BEF15F085EF15F0892B59
:102AF8008951D8A482EF15F084EF15F085EF15F011
:102B080089691200A09A5150D8A48DEF15F08FEF63
:102B180015F09AEF15F02CC082F02DC083F02EC06E
:102B280050F0010E0001886F010E516EA08A12004C
:102B3800698468986D82010E596E0001896B116A6B
:102B4800750E106E000E126E000E136E156A000ED2
:102B5800146E6FEC10F012000001D86B080EDA6FDB
:102B6800D96B800ED46F250ED56F000ED66F000E70
:102B7800D76F866B1200000E67EC14F0D4EC0BF0E4
:102B8800F7EC14F08DEC09F0C6EF15F007EF00F044
:102B9800427574746F6E20707265737365642E0D60
:022BA8000A0021
:020000040020DA
:08000000FFFFFFFFFFFFFFFF00
:020000040030CA
:0E000000240E3F1EFF8181FF0FC00FE00F4056
:00000001FF
